{"abi":[{"type":"function","name":"decimals","inputs":[],"outputs":[{"name":"","type":"uint8","internalType":"uint8"}],"stateMutability":"pure"},{"type":"function","name":"latestRoundData","inputs":[],"outputs":[{"name":"roundId","type":"uint80","internalType":"uint80"},{"name":"answer","type":"int256","internalType":"int256"},{"name":"startedAt","type":"uint256","internalType":"uint256"},{"name":"updatedAt","type":"uint256","internalType":"uint256"},{"name":"answeredInRound","type":"uint80","internalType":"uint80"}],"stateMutability":"view"}],"bytecode":{"object":"0x6080604052348015600e575f5ffd5b506101b28061001c5f395ff3fe608060405234801561000f575f5ffd5b5060043610610034575f3560e01c8063313ce56714610038578063feaf968c14610056575b5f5ffd5b610040610078565b60405161004d91906100be565b60405180910390f35b61005e610080565b60405161006f95949392919061012b565b60405180910390f35b5f6008905090565b5f5f5f5f5f60016509184e72a00042426001945094509450945094509091929394565b5f60ff82169050919050565b6100b8816100a3565b82525050565b5f6020820190506100d15f8301846100af565b92915050565b5f69ffffffffffffffffffff82169050919050565b6100f5816100d7565b82525050565b5f819050919050565b61010d816100fb565b82525050565b5f819050919050565b61012581610113565b82525050565b5f60a08201905061013e5f8301886100ec565b61014b6020830187610104565b610158604083018661011c565b610165606083018561011c565b61017260808301846100ec565b969550505050505056fea2646970667358221220b8220c5f7bd86defb9854aab86b295a98ae2c4634e2e5c6246efe203b0c2123764736f6c63430008210033","linkReferences":{}},"methodIdentifiers":{"decimals()":"313ce567","latestRoundData()":"feaf968c"},"id":0}